:020000040000FA
:100000007039002091060000990600009B06000050
:100010009D0600009F060000A106000000000000F1
:10002000000000000000000000000000A306000027
:10003000A506000000000000A7060000A9060000B9
:10004000AB060000AB060000AB060000AB060000EC
:10005000AB060000AB060000AB060000AB060000DC
:10006000AB060000AB060000AB060000AB060000CC
:10007000AB060000AB060000AB060000AB060000BC
:10008000AB060000AB060000AB060000AB060000AC
:10009000AB060000AB060000AB060000AB0600009C
:1000A000AB060000AB060000AB060000AB0600008C
:1000B000AB060000AB060000AB060000AB0600007C
:1000C000AB060000AB060000AB060000AB0600006C
:1000D000AB060000AB060000AB060000AB0600005C
:1000E000AB060000AB060000AB060000AB0600004C
:1000F000AB060000AB060000AB060000AB0600003C
:10010000AB060000AB060000AB060000AB0600002B
:10011000AB060000D5070000AB060000AB060000F0
:10012000AB060000AB060000AB060000AB0600000B
:10013000AB060000AB060000AB060000AB060000FB
:10014000AB060000AB060000AB060000AB060000EB
:10015000F7070000AB060000AB060000AB0600008E
:10016000AB060000AB060000AB060000AB060000CB
:10017000213700002F3700003D370000AB0600009C
:10018000AB060000AB060000AB060000AB060000AB
:10019000AB060000AB060000AB060000AB0600009B
:1001A000AB060000AB060000AB060000AB0600008B
:1001B000AB060000AB060000AB060000AB0600007B
:10040000FFFFFFFFFFFFFFFFFFFFFFFFFEFFFFFFFD
:1004100000F002F800F05AF80AA090E8000C8244BC
:100420008344AAF10107DA4501D100F04FF8AFF299
:10043000090EBAE80F0013F0010F18BFFB1A43F0C2
:1004400001031847585B0000785B00000A444FF036
:10045000000C10F8013B13F0070408BF10F8014B23
:100460001D1108BF10F8015B641E05D010F8016B68
:10047000641E01F8016BF9D113F0080F1EBF10F8CC
:10048000014BAD1C0C1B09D16D1E58BF01F801CBEF
:10049000FAD505E014F8016B01F8016B6D1EF9D572
:1004A0009142D6D370470000002300240025002687
:1004B000103A28BF78C1FBD8520728BF30C148BFC7
:1004C0000B6070471FB51FBD10B510BD04F066FE70
:1004D0001146FFF7F7FF00F0F9F804F084FE03B4CB
:1004E000FFF7F2FF03BC04F089FE0000C0BA7047BA
:1004F0004CF220506149C8814DF62810C8814FF454
:10050000E97008804FF488105D49486406205D4911
:100510000870002048700846C07800F03F0040F0A6
:100520002000C87000200871487100BF55488079CC
:1005300000F010000028F9D000BF5248807900F088
:100540000C000028F9D170474E4A127802F0C00220
:10055000002A67D14B4A527902F04002002A51D159
:10056000484A127802F00402C2B9454A526802F0C1
:1005700001020AB9444801E04FF40040414A1278B0
:10058000C2F3C20301229A40D1B2B0FBF1F03D4A5E
:10059000527802F030021AB1400901E04FF40040F5
:1005A000384AD27802F0E00202F01F0343BB521136
:1005B000082A25D2DFE802F004080C1014181C20C9
:1005C00000EB8002D0011CE000EB8002100218E07A
:1005D000C0EB0012D00114E000EB8002500210E0EA
:1005E0004FF4377250430CE04FF4B762504308E0C9
:1005F00040F69502504304E040F67132504300E06B
:1006000000BF30E01F4A127902F01F02511C1E4A3F
:10061000B2FBF1F01B4A527902F01F0202F11801FD
:10062000484320E0174A127802F0C002402A09D15C
:10063000144A527802F0010212B94FF4004012E05D
:10064000114810E00F4A127802F0C002802A09D146
:100650000B4A526802F001020AB90B4803E04FF45A
:10066000004000E07047064A526C012303EB12720F
:10067000B0FBF2F2054B1A6000BFF3E70020054023
:10068000008004400040064000093D0000000020BA
:100690000948804709480047FEE7FEE7FEE7FEE716
:1006A000FEE7FEE7FEE7FEE7FEE7FEE70448054952
:1006B000034A054B70470000F104000011040000DC
:1006C000703500207039002070350020122105207F
:1006D00000F042FD00F066FF04F0A0FC4FF4E131B1
:1006E0002D4803F087F9012202212C4803F0B1F9CB
:1006F000352000F046F801220321294800F02EFAA7
:1007000001220321274800F029FA002241F2883112
:100710002548006800F001FA002241F288312348A0
:10072000006800F0FAF9002241F2883120480068A0
:1007300000F0F3F9002241F288311E48006800F011
:10074000ECF903F092FB0521002000F0F4F90122FE
:100750000021084602F097F9442000F012F800F05A
:1007600022F904F0FEFB02E0642000F058FFFBE7F2
:1007700004460D46224629460FA003F03AFB00BF6F
:10078000FEE700F01F02012191404209920002F1B0
:10079000E022C2F8001170471C33060000A00E4092
:1007A000010040040100400C080000200C00002063
:1007B00010000020140000206173736572745F667E
:1007C00061696C65643A6C696E653A2564202573CD
:1007D0000D0A000008B5442000F081F8694644483D
:1007E00003F0D7FA18B19DF8000004F0B6FA4420DF
:1007F00000F06AF808BD70B5352000F070F83D488B
:100800000088C72820DD00203A4908803A48B0F91E
:1008100000203AA13BA003F0ECFA3D48006804F048
:1008200037FE044622460B463AA136A003F0E1FA11
:100830003A48006804F02CFE044622460B4638A1D4
:1008400030A003F0D6FA04E02A480088401C294969
:100850000880354802F025FBA0F5D040BA3833496E
:100860000880334802F01DFB3249088008460188A1
:100870002E48008800F07EF92F48006808B9012052
:1008800000E000202C49086000F0B8FA2B4908600D
:100890000846006804F0C8FF294908622748006834
:1008A00004F0C2FF274908622748006800F052F8A8
:1008B0002648006800F04EF80021084602F03DF995
:1008C000352000F001F870BD00F01F0201219140B9
:1008D0004209920002F1E022C2F80011704700F0D4
:1008E0001F02012191401A4A430942F82310704720
:1008F00000A00E40040000202C000020416E676C18
:10090000650000002573090925640D0A0000000038
:10091000840000205374616E645F500088000020E2
:100920005374616E645F44000100400C9400002029
:1009300001004004960000203C18FE437C0000208B
:100940001003002048030020180000201C00002095
:1009500080E100E070B504460021206A05F090F8BF
:100960000CD2206A04F040FF05462946206B01F0B6
:10097000A1F80021606B01F09DF813E00021206ACE
:1009800004F07EFF0ED20021206B01F093F8206A64
:1009900080F00046304604F027FF05462946606B8C
:1009A00001F088F870BD3D483D4908623D488862C5
:1009B0003D48C8623D48006808633D480068486398
:1009C00036483C490862374888623748C8623A4826
:1009D00000680863394800684863704710B53848B4
:1009E0000088E0B937490968086A374904F07CFD96
:1009F00034490968086235490968086A324904F0CF
:100A000073FD3249096808622E490968086A30494D
:100A100004F09AFE23D10120294908801FE02848CC
:100A2000008801281BD127490968086A264905F072
:100A300063F824490968086224490968086A224958
:100A400005F05AF82149096808621E490968086AD0
:100A5000204904F079FE02D1002019490880194884
:100A60000068FFF777FF19480068FFF773FF10BDB4
:100A700070B506460C4615461748008810B9FFF7B2
:100A8000ADFF09E014480088012805D10D48006831
:100A900004620E480068056270BD000000803B459E
:100AA0001003002000C0DA4500C0DAC508000020AD
:100AB0000C0000204803002010000020140000203B
:100AC00020000020180000200000C8421C00002068
:100AD0000080BB450080BBC5220000202DE9FE43FD
:100AE00004460D4616461F46DDF82880ADF8005036
:100AF0008DF802808DF803708DF8046002946846CA
:100B000001F0BEFBBDE8FE837CB505460C460195B1
:100B10000094684602F046FE7CBD7FB504460E4652
:100B2000154600960194029500208DF80C00684649
:100B300001F046F87FBD7CB505460C468DF80050A7
:100B40000194684601F0E6FE7CBD0146002900DB09
:100B500002E0002900DA494288B27047FEB5064635
:100B60000C46154600960194ADF80850684602F010
:100B70006FF8FEBD2DE9F04705460C46284604F007
:100B800053FE82468B480168504604F0B5FF80460C
:100B900089480168404604F0A7FE07468748B0F937
:100BA000000004F041FE8146394604F09DFC0646F3
:100BB00004F0FEFD00B28149088081484168814807
:100BC000006804F099FF06467D488168304604F0CD
:100BD00093FF7D4908607A48C06880F00040486013
:100BE0007748C06880F00040886078480068C86036
:100BF00008687149096804F077FE06467048016884
:100C0000304604F071FC6E4908606F4948686A49D3
:100C1000096804F069FE064669484168304604F0F8
:100C200063FC67494860684988686349096804F05B
:100C30005BFE064662488168304604F055FC604918
:100C400088606149C8685C49096804F04DFE064641
:100C50005B48C168304604F047FC5949C8605749B1
:100C6000B1F90010601A04F0DFFD594908605448DA
:100C700001685848006804F037FE5749086050483A
:100C800081685448006804F02FFE544908605248B7
:100C900001685048006804F027FE06465048016885
:100CA000304604F021FC4F490860084601684A4874
:100CB000006804F087FC4C4908604A4801684748CE
:100CC000006804F07FFC49490860434800684849CF
:100CD00008603B4841683F48006804F005FE45490C
:100CE0000860434801684048006804F0FDFD06467E
:100CF00033480168304604F0F4FE314908603D484D
:100D000001683948006804F0EFFD06462C48416848
:100D1000304604F0E6FE2A49486035480168334809
:100D2000006804F0E1FD064625488168304604F07D
:100D3000D8FE234988602F4801682C48006804F0D9
:100D4000D3FD06461E48C168304604F0CAFE1C4961
:100D5000C8601F4801682448006804F0C5FD80464B
:100D60001648B0F9000004F05FFD0746414604F064
:100D7000BBFB064604F01CFD00B210490880144875
:100D800001681A48006804F0AFFD0646094801688A
:100D9000304604F0A9FB07490860284604F044FDEA
:100DA000064604480168304604F0A6FE1249086071
:100DB000BDE8F08748000020400000202C00002003
:100DC0006C00002034000020800300203800002048
:100DD0004C0000204400002050000020540000205F
:100DE0003C000020580000205C0000206000002033
:100DF0006400002068000020300000202DE9F04150
:100E000000241748008804F027FD80461548016833
:100E1000404604F069FD06461349B1F90010134A33
:100E20001268881A04F018FD80461148016840468F
:100E300004F05AFD0746314604F056FB054604F01F
:100E4000B7FC044642F2AC60844201DD044603E094
:100E50000848844200DA04462046BDE8F0810000DC
:100E600094000020880000202C000020800000203A
:100E70008400002054D9FFFFFE48007800F00400F1
:100E800010B10120FC494870FA48007800F00200D7
:100E900010B10220F8494870F648007800F00100CF
:100EA00010B10320F4494870F248407800F0800007
:100EB00010B10420F0494870EE48407800F040003E
:100EC00010B10520EC494870EA48407800F0200055
:100ED00010B10620E8494870E648407800F0040068
:100EE00010B10720E4494870E248407800F0020061
:100EF00010B10820E0494870DE48407800F0010059
:100F000010B10920DC494870DC48406AC0F3021087
:100F1000082825D2DFE800F004080C1014181C2063
:100F20000A20D54908701FE01420D34908701BE03F
:100F30001E20D149087017E02820CF49087013E01F
:100F40003C20CD4908700FE04620CB4908700BE0EB
:100F50003220C949087007E03520C749087003E00E
:100F60000020C549087000BF00BFC448406A00F0B7
:100F70000F00801E0D2831D2DFE800F007300B0F84
:100F800013171B1F233027302B002020BA498880DD
:100F900028E03020B849888024E04020B649888085
:100FA00020E05020B44988801CE05120B24988805C
:100FB00018E06420B049888014E06820AE49888039
:100FC00010E09020AC4988800CE0C420AA498880B9
:100FD00008E04FF48070A849888003E00020A6490B
:100FE000888000BF00BFA548406AC0F3033020B12D
:100FF000012806D002280CD107E00A209E498870FB
:101000000BE00B209C49887007E00C209A498870FF
:1010100003E000209849887000BF00BF9748C06C6B
:10102000C0F30360072806D0092809D00B280CD08C
:101030000F2814D10EE04FF400308F49886012E081
:101040004FF480208C4988600DE04FF400208A49DD
:10105000886008E04FF400208749886003E00020A2
:101060008549886000BF00BF8448006D00F400001F
:1010700018B100208049C86022E08048C06C000F91
:1010800030B1072808D009280BD00F2813D10DE064
:1010900000207949C86012E04FF400307649C860FA
:1010A0000DE04FF480207449C86008E04FF48020C0
:1010B0007149C86003E000206F49C86000BF00BFED
:1010C0006F480068C0F30330052806D0072809D010
:1010D00008280CD0092814D10EE04FF400406649CE
:1010E000086112E04FF48030634908610DE04FF46D
:1010F000C0306149086108E04FF400305E49086182
:1011000003E000205C49086100BF00BF5D48006843
:10111000594948615948406CC0F30360401C594923
:101120000968B1FBF0F0544988615448406CC0F341
:101130000350401C53490968B1FBF0F04E49C861A7
:101140004E48406CC0F30340401C4E490968B1FB57
:10115000F0F049490862704770B504460D461CB16D
:10116000052C01D0062C00D103E0802146A0FFF71A
:10117000FFFA122D09D0132D07D0112D05D0102DF7
:1011800003D0092D01D0082D00D103E081213EA01C
:10119000FFF7EEFA002C5BD1601E38494864062048
:1011A0003F490870002048700846C07820F0E000F1
:1011B000C870082D1DD0102D0DD0112D27D1084637
:1011C000C07840F0E000C87036482C494864364882
:1011D0002C49086029E03248C07840F0C00030490E
:1011E000C8704FF089702549486430482549086027
:1011F0001BE02B48C07840F0A0002949C8704FF48C
:1012000080301E4948642A481E4908600DE0244881
:10121000C07840F0A0002249C8704FF480301749D0
:10122000486423481749086000BF00BF00201C49DC
:101230000871487100BF1A48807900F0100000283A
:10124000F9D000BF1648807900F00C000028F9D1D1
:10125000062C01D0052C73D14FF0FF3007494864AC
:101260000020144908700548406800F0FE0003495A
:10127000486021E000E00740900300200080044027
:1012800000700440000000202E2E5C5352435C4648
:10129000574C49425C5359535C7379732E63000079
:1012A000004006400000130100D8B80500A24A041F
:1012B000006CDC02005006402420AC4948709A20A3
:1012C00008700846C07800F01F00C870032008713D
:1012D0000020487100BFA548807900F00200002876
:1012E000F9D000BFA148807900F010000028F9D1A2
:1012F00000BF9E48807900F00C000828F9D1062C28
:1013000003D103209949087104E0052C02D118206B
:1013100096490871A5F108000C2855D2DFE800F0C5
:1013200006115454545454541C27313B40208F49C7
:10133000487180028E4948648E488F4908604DE0AC
:101340006CE04820894948714FF0897088494864A9
:101350008A488949086041E04C20844948714FF02F
:1013600089708349486486488349086036E058207C
:101370007E49487183487E49486483487E490860B5
:101380002CE05A20794948717E48794948647F4861
:101390007949086022E0062C08D1012073490871C0
:1013A0005A2048717A487249486409E0052C07D1EF
:1013B0000C206E4908715C20487175486C4948647E
:1013C00074486D49086009E040206849487180020E
:1013D0006749486467486849086000BF00BF00BFAC
:1013E0006248807900F020000028F9D000BF5F48F3
:1013F000807900F040000028F9D01A205B4908707D
:1014000000BF5A48807900F00C000C28F9D100BFC9
:101410005648807900F040000028F9D0FFF72CFDF5
:1014200070BD2DE9F05F07460C4615461E46072C99
:1014300007D0062C05D0052C03D0042C01D0032C9A
:1014400000D105E040F20D11AFF2C410FFF790F9A2
:10145000102D00D205E04FF48771AFF2D410FFF7E2
:1014600087F9102E00D205E040F20F11AFF2E8101C
:10147000FFF77EF900BF04F00701474A10684FF6F6
:10148000FF021040454A024342EA0120424A1060EE
:1014900000BF38462346AC46B04603F00702C2F10F
:1014A000070BBBF1040F02D94FF0040B01E0C2F1AE
:1014B000070BDA4602F1040BBBF1070F02D24FF023
:1014C000000B01E0A2F1030BD9464FF0010B0BFA20
:1014D0000AFBABF1010B0BEA0C0B0BFA09FB4FF00B
:1014E000010E0EFA09FEAEF1010E0EEA080E4BEAED
:1014F0000E0100BF00280ADA0A074FEA126C264ADA
:101500000C3200F00F031B1F02F803C003E00A07B0
:10151000130E234A135400BFBDE8F09F00BFBFF372
:101520004F8F1D48006800F4E0601C490843001D0F
:1015300019490860BFF34F8F00BF00BFFEE762B6D6
:10154000704772B6704710B5044604F0030000B946
:1015500005E040F23D11AFF2D020FFF709F90E4847
:10156000001F046010BDF0207047000000400640DE
:1015700000800440006CDC02000000200090D003DA
:1015800000A24A040000130100D8B80500E1F505E7
:101590000000170100C2EB0B0CED00E00000FA05A3
:1015A00000E400E010B54FF0E020006940F00400D6
:1015B0004FF0E0210861FFF75FFC2D4840692D499D
:1015C000B0FBF1F02C490870084600784FF47A71AE
:1015D00010FB01F02949086010BD0146264A127827
:1015E0004A434FF0E0235A6100229A611A46126979
:1015F00042F001021A6100BF4FF0E022106900F0D2
:1016000001021AB100F48032002AF5D04FF0E02236
:10161000126922F001024FF0E0231A61704710B501
:101620000146002220E0154B1B684FF0E024636167
:101630000023A36123461B6943F00103236100BF1C
:101640004FF0E023186900F001031BB100F4803370
:10165000002BF5D04FF0E0231B6923F001034FF07E
:10166000E0242361531C9AB28A42DCD310BD0000EF
:101670009003002040420F008C00002090000020CA
:1016800030B5024600200021111D0B7803F00F0336
:1016900023B1012B04D0022B06D103E0FE4804E065
:1016A000FE4802E0FE4800E000BF00BF137B33B1FC
:1016B000012B64D0022B7DD0032B7CD158E1436DEC
:1016C00043F004034365436D23F001034365D0F801
:1016D000803023F00103C0F88030036823F020033A
:1016E000036000240B78C3F3031500F10C0343F8E7
:1016F00035400B78C3F3031400F10C0353F8343076
:1017000043F028040B78C3F3031500F10C0343F8EE
:1017100035400B78C3F30313082B2DD2DFE803F019
:1017200004050E0F1819222300BF436E23F0040393
:101730004366436E23F0010343661EE000BF436E21
:1017400023F480634366436E23F48073436614E09E
:1017500000BF436E23F480234366436E23F480333B
:1017600043660AE000BF436E23F080634366436E26
:1017700023F08073436600E000BF00BF98E1436D33
:1017800043F004034365436D23F001034365D0F840
:10179000803023F00103C0F88030036843F0200359
:1017A000036000240B78C3F3031500F10C0343F826
:1017B000354001E046E07AE10B78C3F3031400F111
:1017C0000C0353F8343043F028040B78C3F30315AB
:1017D00000F10C0343F835400B78C3F30313082BD7
:1017E0002DD2DFE803F004050E0F1819222300BFE5
:1017F000436E23F004034366436E23F00103436604
:101800001EE000BF436E23F480634366436E23F4FF
:101810008073436614E000BF436E23F48023436665
:10182000436E23F4803343660AE000BF436E23F027
:1018300080634366436E23F08073436600E000BF1D
:1018400000BF35E1436D43F004034365436D43F04E
:1018500001034365D0F8803023F00103C0F88030E5
:10186000036823F02003036003238365836D43F043
:101870008003836500240B78C3F3031500F10C0388
:1018800043F835400B78C3F3031400F10C0353F80D
:10189000343043F028040B78C3F3031500F10C0334
:1018A00043F835400B78C3F30313082B5DD2DFE810
:1018B00003F004051A1B3031464700BF436E23F086
:1018C00004034366436E43F001034366436E23F013
:1018D00002034366436E43F020034366436E23F0E6
:1018E0001003436642E000BF436E23F48063436607
:1018F000436E43F480734366436E23F40073436680
:10190000436E43F400534366436E23F480534366AF
:101910002CE000BF436E23F480234366436E43F400
:1019200080334366436E23F400334366436E43F4CF
:1019300000134366436E23F48013436616E000BF32
:10194000436E23F080634366436E43F080734366C7
:10195000436E23F000734366436E43F000534366C7
:10196000436E23F08053436600E000BF00BF00BF1A
:10197000436D43F004034365436D43F00103436546
:10198000D0F8803023F00103C0F88030036823F0E2
:10199000200303608523836603238365836D43F0FF
:1019A0008003836500240B78C3F3031500F10C0357
:1019B00043F835400B78C3F3031400F10C0353F8DC
:1019C000343043F028040B78C3F3031500F10C0303
:1019D00043F835400B78C3F30313082B64D2DFE8D8
:1019E00003F004051A1B3031464700BF436E23F055
:1019F00004034366436E43F001034366436E43F0C2
:101A000002034366436E43F020034366436E43F094
:101A10001003436649E000BF436E23F480634366CE
:101A2000436E43F480734366436E43F4007343662E
:101A3000436E43F400534366436E43F4805343665E
:101A400033E000BF436E23F480234366436E43F4C8
:101A500080334366436E43F400334366436E43F47E
:101A600000134366436E43F4801343661DE000BFDA
:101A7000436E23F080634366436E43F08073436696
:101A8000436E43F000734366436E43F00053436676
:101A9000436E43F0805305E0008003400090034014
:101AA00000800B40436600E000BF00BF00BF00BFE6
:101AB00000BF30BD2DE9F3410C46002700256E46DE
:101AC000FE49009888424CD0FD490098884248D091
:101AD000FC490098884244D0FB490098884240D095
:101AE000FA49009888423CD0F9490098884238D099
:101AF000F8490098884234D0F7490098884230D09D
:101B0000F649009888422CD0F5490098884228D0A0
:101B1000F4490098884224D0F3490098884220D0A4
:101B2000F249009888421CD0E549903900988842D3
:101B300017D0EF490098884213D0EE4900988842A8
:101B40000FD0ED49009888420BD0EC4900988842AC
:101B500007D0EB490098884203D0EA4900988842B0
:101B600000D103E0E521E8A0FEF702FE42F210708A
:101B7000844200D803E0E621E3A0FEF7F9FD3078C7
:101B800000F00F0020B1012804D0022806D103E0A4
:101B9000E34D04E0E34D02E0E34D00E000BF00BF91
:101BA000A868604342F21071B0FBF1F73078C0F3DF
:101BB000031105F10C0000EBC1004760BDE8FC819A
:101BC0002DE9F04704460025A846261DBB4960685C
:101BD00088424CD0BA496068884248D0B9496068A8
:101BE000884244D0B8496068884240D0B7496068AC
:101BF00088423CD0B6496068884238D0B5496068B0
:101C0000884234D0B4496068884230D0B3496068B3
:101C100088422CD0B2496068884228D0B1496068B7
:101C2000884224D0B0496068884220D0AF496068BB
:101C300088421CD0A24990396068884217D0AC49CC
:101C40006068884213D0AB49606888420FD0AA49C7
:101C5000606888420BD0A9496068884207D0A849CB
:101C60006068884203D0A7496068884200D104E0D8
:101C700040F20711A4A0FEF77BFD207B40B1207B42
:101C8000012805D0207B022802D0207B032800D128
:101C900004E04FF484719CA0FEF76AFD42F21071DB
:101CA000A068884200D804E040F2091196A0FEF72F
:101CB0005FFD307800F00F0020B101280AD0022823
:101CC00018D10FE09948C06B40F080709749C86305
:101CD000934D10E09548C06B40F000709349C86385
:101CE000904D08E09148006B40F080708F49086388
:101CF0008D4D00E000BF00BF3068C0F38330052881
:101D000031D2DFE800F0030C151E2700DFF8208237
:101D10008648806B40F400708449886323E0DFF8D4
:101D200014828248806B40F48060804988631AE0A6
:101D3000DFF804827D48806B40F400607B49886353
:101D400011E0DFF8F8817948806B40F480507749E2
:101D5000886308E0DFF8E8817448806B40F4005045
:101D60007249886300BF00BF3088C0F3052058F86F
:101D7000200020F4E0603188C1F3052148F82100FB
:101D80003088C0F3052058F820003168C1F3834142
:101D90004FF4E06202EA012108433188C1F30521D2
:101DA00048F82100674880692168B0FBF1F04FF6E0
:101DB000FF71B0FBF1F0C7B2042F00DB0427012153
:101DC000B940206848435F498969B1FBF0F9286848
:101DD00020F018002860286820F007002860286894
:101DE00007F0070141F0080108432860C5F8089092
:101DF0000020E8646860814601E009F10109524869
:101E00008145FAD32046FFF73BFCD4E90101FFF7F7
:101E100051FEBDE8F08770B50024002500BF26E024
:101E20004A4810F8240000F00F05484810F8240034
:101E3000C0F3031045EA0015444830F82400C0F30D
:101E4000052045EA0025414850F82400C0F38330BE
:101E500045EA80353D4850F82400C0F3834045EA08
:101E6000804529463AA001F0C4FF601CC4B2142C7E
:101E7000D6D370BD01462D48806B40F400702B4ACC
:101E800090631046806B40F4806090631046806BD6
:101E900040F4006090631046806B40F48050906383
:101EA0001046806B40F4005090631D484042084447
:101EB00010B1B0F5805F51E055E0000000811000E6
:101EC00000030C001082100010040C00208310008E
:101ED00020050C003084100040C4100050C51000D4
:101EE00050000C0060C6100060010C0070C71000AC
:101EF000010C0C0001400C00110D0C0011410C00F4
:101F000002520C0012530C002E2E5C5352435C46BE
:101F1000574C49425C46544D5C66746D2E6300001C
:101F2000008003400090034000800B40008004408C
:101F30000090044000A0044000B0044000C00440F1
:101F400000D0044090030020801A0600E45B0000EB
:101F50002830782530387855290D0A000AD0B0F598
:101F6000002F15D10DE0C048C06B40F08070BE4A14
:101F7000D0630DE0BC48C06B40F00070BA4AD0633B
:101F800006E0B948006B40F08070B74A106300BFAC
:101F900000BFB648084430B1B0F5805F04D0B0F55A
:101FA000002F42D12BE041E0B148006B20F4E0600B
:101FB000AF4A10631046006B40F4E06010631046B7
:101FC000406B20F4E06050631046406B40F4E060EA
:101FD0005063A848006820F4E060A64A10601046EC
:101FE000006840F4C06010601046406820F4E06073
:101FF00050601046406840F4C060506016E09D4854
:10200000806C20F4E0609B4A90641046806C40F441
:10201000C06090641046C06C20F4E060D06410464C
:10202000C06C40F4C060D06400E000BF00BF43F269
:10203000B06088600020C864486D40F004004865C6
:10204000486D40F001004865D1F8800020F008009C
:10205000C1F88000D1F8800040F00100C1F8800094
:10206000086840F00D000860002070470346D3F870
:102070008000C0F30010107058680860002070479E
:1020800070B504460D46164678484042844205D055
:102090007948844202D07948844200D105E040F278
:1020A000E511AFF29C10FEF763FB0EB1012E00D1DB
:1020B00005E04FF4F371AFF2B010FEF759FB0B2DB2
:1020C00032D2DFE805F01213141516171819313142
:1020D0000600012E04D1206840F04000206003E09B
:1020E000206820F0400020601FE000BF00BF00BF5C
:1020F00000BF00BF00BF00BF012E0AD104F10C00D9
:1021000050F8350040F0400104F10C0040F8351063
:1021100009E004F10C0050F8350020F0400104F112
:102120000C0040F8351000E000BF00BF70BD70B576
:1021300005460C464D484042854205D04E488542F2
:1021400002D04E48854200D105E040F21321AFF2A3
:102150004820FEF70DFB0A2C0FD074B1012C0CD0D7
:10216000022C0AD0032C08D0042C06D0052C04D055
:10217000062C02D0072C00D004B905E04FF40571FD
:10218000AFF27C20FEF7F4FA0B2C21D2DFE804F04A
:102190000E0F10111213141520200600286800F0ED
:1021A000800008B1012600E0002611E000BF00BF5A
:1021B00000BF00BF00BF00BF00BF05F10C0050F81A
:1021C000340000F0800008B1012600E0002600BFC6
:1021D00000BF304670BD70B505460C46002623484A
:1021E0004042854205D02448854202D0234885429A
:1021F00000D105E04FF41071AFF2F420FEF7B8FA09
:102200000A2C0FD074B1012C0CD0022C0AD0032C54
:1022100008D0042C06D0052C04D0062C02D0072CA4
:1022200000D004B905E040F24121AFF22430FEF7BE
:102230009FFA00BF0B2C15D2DFE804F008090A0B47
:102240000C0D0E0F141406002E680BE000BF00BF2B
:1022500000BF00BF00BF00BF00BF05F10C0050F879
:10226000346000BF00BF70BD008004400080FCBF30
:102270000090044000A004400090034000800B4008
:1022800070B5044600260025FE49A068884212D099
:10229000FC494031A06888420DD0FA498031A068DD
:1022A000884208D0F749C031A068884203D0F64977
:1022B000A068884200D103E01E21F4A0FEF758FA7E
:1022C0002088202800DA03E01F21F0A0FEF750FA52
:1022D000A07810B1A078012800D103E02021EBA064
:1022E000FEF746FAE078B8B1E078012814D0E0783B
:1022F000022811D0E07803280ED0E07808280BD00F
:10230000E078092808D0E0780A2805D0E0780B2882
:1023100002D0E0780C2800D103E02121DBA0FEF7F9
:1023200027FA207904280BD02079052808D02079B5
:10233000062805D02079072802D02079082800D166
:1023400003E02221D1A0FEF713FAA668CD4980311F
:10235000701A8E421BD005DCD348304438B1402877
:102360002DD10CE040281AD0802828D11FE0CF4D75
:10237000CF48806B40F40070CD49886320E0CD4D9C
:10238000CB48806B40F48060C949886318E0CA4D2F
:10239000C748806B40F40060C549886310E0C74DB2
:1023A000C348806B40F48050C149886308E0C44D45
:1023B000BF48806B40F40050BD49886300E000BF17
:1023C00000BF208855F8200020F4E060218845F8FF
:1023D0002100208855F8200040F48070218845F8BD
:1023E00021002079072802D02079082835D170698A
:1023F00022780121914008437061208855F820001F
:1024000020F00200218845F82100A078012806D19B
:1024100030682278012191400843306005E030683F
:10242000227801219140884330602079072808D123
:10243000208855F8200040F02000218845F8210030
:102440004DE0207908284AD1208855F8200020F056
:102450002000218845F8210041E02079042805D09A
:102460002079052802D02079062838D17069227891
:1024700001219140884370612079042808D1208887
:1024800055F8200020F00200218845F8210026E0C0
:102490002079052810D1208855F8200040F002004E
:1024A000218845F82100208855F8200020F00100FF
:1024B000218845F8210012E0207906280FD12088D4
:1024C00055F8200040F00200218845F821002088BE
:1024D00055F8200040F00100218845F821002088AF
:1024E00055F8200020F47020218845F8210020882C
:1024F00055F82000E1784FF4702202EA01410843C8
:10250000218845F8210070BD10B5024600235D4CBE
:102510008034101BA2420FD005DC6348104438B150
:1025200040280FD106E0402808D080280AD107E0D3
:102530005E4B08E05F4B06E05F4B04E05F4B02E060
:102540005F4B00E000BF00BFD3F8A00001248C4027
:10255000204008B1012010BD0020FCE710B500228A
:10256000484C8034031BA0421BD005DC4E4B034477
:102570003BB1402B2DD10CE0402B1AD0802B28D121
:102580001FE04A4A4A4B9B6B43F40073484CA363D9
:1025900020E0484A464B9B6B43F48063444CA36362
:1025A00018E0454A424B9B6B43F40063404CA363E5
:1025B00010E0424A3E4B9B6B43F480533C4CA36378
:1025C00008E03F4A3A4B9B6B43F40053384CA363FB
:1025D00000E000BF00BFD2F8A03001248C402343AC
:1025E000C2F8A03010BD0021C170042101717047F4
:1025F00070B504460D461646224884420ED0214846
:10260000403084420AD01F488030844206D01E48A1
:102610004038844202D01C48844200D103E0BF21EC
:102620001AA0FEF7A5F8202D00DA03E0C02117A0BC
:10263000FEF79EF80EB1012E00D103E0C12113A0D8
:10264000FEF796F82EB160680121A940084360604A
:1026500004E0A0680121A9400843A06070BD70B5E6
:1026600004460D46074884422FD006484030844235
:102670002BD004488030844227D00348403884421D
:1026800023D01FE000F00F4000F10F402E2E5C53CE
:1026900052435C46574C49425C4750494F5C677017
:1026A000696F2E63000000000010F0BF009004402E
:1026B0000080044000A0044000B0044000C004407A
:1026C00000D004409148844200D104E0DC21AFF204
:1026D0004400FEF74DF8202D00DA04E0DD21AFF2D2
:1026E0005400FEF745F860680121A9400843606086
:1026F00070BD70B504460D46854884420ED08448AE
:10270000403084420AD081488038844206D07F48D5
:102710004038844202D07D48844200D104E0F02158
:10272000AFF29800FEF724F8202D00DA04E0F12142
:10273000AFF2A800FEF71CF8A0680121A9400843E9
:10274000A06070BD70B504460D46714884420ED03D
:102750006F48403084420AD06C488038844206D0AA
:102760006A484038844202D06848844200D105E07B
:1027700040F20511AFF2EC00FDF7FAFF202D00DA70
:1027800005E04FF48371AFF2FC00FDF7F1FFE06864
:102790000121A9400843E06070BD70B504460D46B4
:1027A0005B4884420ED05A48403084420AD0574891
:1027B0008038844206D055484038844202D053487D
:1027C000844200D105E04FF48D71AFF24010FDF767
:1027D000CFFF256070BD70B504460D4600264C48FD
:1027E00084420ED04A48403084420AD0474880385C
:1027F000844206D045484038844202D0434884424F
:1028000000D105E04FF49771AFF28010FDF7B0FFF3
:10281000202D00DA05E040F22F11AFF29010FDF705
:10282000A7FF2068E84000F0010008B1012600E0A1
:102830000026304670BD10B50446354884420ED09F
:102840003348403084420AD030488038844206D031
:102850002E484038844202D02C48844200D105E002
:1028600040F24911AFF2DC10FDF782FF206880B220
:1028700010BD70B504460D460026254884420ED092
:102880002348403084420AD020488038844206D011
:102890001E484038844202D01C48844200D105E0E2
:1028A0004FF4AF71AFF21C20FDF762FF202D00DA6C
:1028B00005E040F25F11AFF22C20FDF759FF2069CF
:1028C000E84000F0010008B1012600E00026304693
:1028D00070BD10B504460E4884420ED00C484030FE
:1028E00084420AD009488038844206D007484038DC
:1028F000844202D00548844200D105E040F27911BB
:10290000AFF27820FDF734FF206910BD00F10F40D1
:1029100000F00F4070B504460025207840B12078C3
:10292000012805D02078022802D02078032800D181
:1029300003E0152191A0FDF71BFFFEF79DFA9548D6
:1029400080694FF47A71B0FBF1F0616800FB01F52A
:102950009148C06B40F400008F49C8638F480068FD
:1029600020F002008D4908600846006840F0010030
:1029700008608B48217800EB0110056088482178B9
:1029800000EB0110C06840F001018548227800EB9F
:102990000210C1608248217800EB0110806840F08D
:1029A00001017F48227800EB0210816070BD10B5F4
:1029B00004462CB1012C03D0022C01D0032C00D1F1
:1029C00003E030216DA0FDF7D3FE754800EB041045
:1029D000006810BD10B504462CB1012C03D0022CA8
:1029E00001D0032C00D103E0412164A0FDF7C0FE1B
:1029F0006B4800EB0410406810BD70B504460D46EE
:102A00002CB1012C03D0022C01D0032C00D103E007
:102A100053215AA0FDF7ACFE614800EB041005609D
:102A200070BD10B504462CB1012C03D0022C01D08E
:102A3000032C00D103E0642150A0FDF799FE584813
:102A400000EB0410806840F00101554800EB0410D1
:102A5000816010BD10B504462CB1012C03D0022CAE
:102A600001D0032C00D103E0752144A0FDF780FEC6
:102A70004B4800EB0410806820F00101484800EB4F
:102A80000410816010BD70B504460E46154606B9A7
:102A900003E08B2139A0FDF76BFE2CB1012C03D094
:102AA000022C01D0032C00D103E08C2133A0FDF7D0
:102AB0005FFE0DB1012D00D103E08D212FA0FDF7A8
:102AC00057FEB6B9012D0AD1354800EB04108068D5
:102AD00040F00201324800EB0410816009E0304808
:102AE00000EB0410806820F002012D4800EB041078
:102AF000816070BD70B504460D4605B903E0A321A1
:102B00001EA0FDF735FE2CB1012C03D0022C01D004
:102B1000032C00D103E0A42118A0FDF729FE55B92C
:102B20001F4800EB0410C06800F0010008B101204C
:102B300070BD0020FCE70020FAE770B504460D46A2
:102B400005B903E0C2210DA0FDF712FE2CB1012C46
:102B500003D0022C01D0032C00D103E0C32107A035
:102B6000FDF706FE0E4800EB0410C06840F00101BE
:102B70000B4800EB0410C16070BD00002E2E5C53AA
:102B800052435C46574C49425C5049545C706974EE
:102B90002E6300009003002000800440007003407A
:102BA000007103400146086A20F040000862486A4C
:102BB00020F00B004862486A40F007004862486A0B
:102BC00040F08000486200BF086800F080000028E4
:102BD000FAD0486A00F04000402801D10120704737
:102BE0000022C86C82B2886C104482B2486C1044D7
:102BF00082B2086C104482B2C86B104482B2886BF7
:102C0000104482B2104602EBD0735A1042F40042D4
:102C1000CA620022C86E82B2886E104482B2486EC8
:102C2000104482B2086E104482B2C86D104482B261
:102C3000886D104482B2104602EBD0735A1042F4F1
:102C400000420A63486A20F0800048620020C6E71C
:102C50002DE9F04105462E4600270024686840B162
:102C60006868022805D06868012802D068680328CF
:102C700001D1012000E0002078B3686840B16868A5
:102C8000022805D06868012802D06868032801D1AD
:102C9000012000E0002002281FD0686840B1686869
:102CA000022805D06868012802D06868032801D18D
:102CB000012000E0002001280FD0686840B168685A
:102CC000022805D06868012802D06868032801D16D
:102CD000012000E00020032800D103E01B21D5A043
:102CE000FDF746FD3068C0F3815088BB3088C0F3E3
:102CF000033005282DD2DFE800F0030B131B23005F
:102D0000D248806B40F40070D0498863D04F21E0F6
:102D1000CE48806B40F48060CC498863CD4F19E089
:102D2000CA48806B40F40060C8498863CA4F11E00C
:102D3000C648806B40F48050C4498863C74F09E09F
:102D4000C248806B40F40050C0498863C44F01E022
:102D50001FE000BF00BF3088C0F3851057F8200087
:102D600020F4E0603188C1F3851147F821003088F4
:102D7000C0F3851057F820003168C1F303414FF4C8
:102D8000E06202EA012108433188C1F3851147F866
:102D90002100307800F03F0010B1012810D107E089
:102DA000AA48C06B40F00060A849C863AD4C08E079
:102DB000A648006B40F00060A4490863AA4C00E0FC
:102DC00000BF00BFA06820F00C00A060A0680C222B
:102DD000696802EA81010843A060A06820F003004E
:102DE000A060A068A060A06820F01000A060A068AB
:102DF00020F06000A060A06840F06000A0600020AB
:102E0000E0603068C0F3016020B9E06820F0100095
:102E1000E06003E0E06840F01000E060E06840F04F
:102E20000400E06041F23420A06145F27860E06186
:102E300018202062072060624FF4C02020653068AF
:102E4000C0F3015060B93068C0F3016054F820004D
:102E500020F020003168C1F3016144F8210010E046
:102E60003068C0F3015001280BD13068C0F3016015
:102E700054F8200040F020003168C1F3016144F8AB
:102E800021002046FFF78EFE288920B9206A40F0F5
:102E90004000206203E0206A20F040002062BDE88C
:102EA000F08101B500226946087800F03F0010B1BA
:102EB000012804D101E06B4A02E06B4A00E000BF48
:102EC00000BF0868C0F3016052F8200020F01F0026
:102ED0000B68C3F3016342F823000868C0F3016084
:102EE00052F820000B6840EA9360C3F3016342F894
:102EF000230000BF0868C0F3016052F8200000F012
:102F000080000028F6D00868C0F3016302F11000C9
:102F100050F8230080B208BD2DE9F04104460D466B
:102F200017461E464F48844202D04F48844200D183
:102F300003E0AE213FA0FDF71BFC07B903E0AF2182
:102F40003CA0FDF715FC0EB1012E00D103E0B0212D
:102F500038A0FDF70DFC7FB9012E06D154F82500ED
:102F600040F0400044F8250005E054F8250020F02A
:102F7000400044F8250000E000BF00BFBDE8F0813C
:102F80002DE9F04104460D4616463648844202D0EB
:102F90003548844200D103E0CB2126A0FDF7E8FBB1
:102FA0000DB1012D00D103E0CC2122A0FDF7E0FB03
:102FB00006B903E0CD211FA0FDF7DAFB46B954F8AE
:102FC000250000F0800008B1012700E0002700E0A4
:102FD00000BF00BF3846BDE8F08170B504460E461C
:102FE00015462048844202D01F48844200D103E0A5
:102FF000E92110A0FDF7BCFB06B903E0EA210DA012
:10300000FDF7B6FB0DB1012D00D103E0EB2109A0C6
:10301000FDF7AEFB5EB9012D04D1206A40F004003B
:10302000206203E0206A20F00400206200E000BF7C
:1030300000BF70BD2E2E5C5352435C46574C494234
:103040005C4144435C6164632E6300000080044083
:103050000090044000A0044000B0044000C00440C0
:1030600000D0044000B0034000B00B40FA4800E03C
:10307000401C00F00F02002AFAD1F84A1060F8480C
:1030800000E0401C00F00F02002AFAD1F54A10605F
:103090000022F24B1B685A80F04B1B681A801822E2
:1030A000EE4B1B689A60F04800E0401C00F00F02F5
:1030B000002AFAD1002121E08022EA4B1B6803EBB1
:1030C00041131A800022E74B1B6803EB41135A801F
:1030D00002BAE44B1B6803EB41135A6000F5BE6073
:1030E0000022E04B1B6803EB41131A614FF40042CE
:1030F000DC4B1B6803EB41139A60491C0829DBD3A6
:10310000D84A1268B2F8E02042F02002D54B1B6882
:10311000A3F8E0200022D54B1A60704770B5034633
:103120004FF0FF31002212E09C5C00250CE004F01F
:10313000010001F00106704018B14908CC48414037
:1031400000E0490864106D1C082DF0DB521C062AB3
:10315000EADB880E70BD30B5044620780006617841
:1031600040EA0140A17840EA0120E1780843C149E2
:10317000086020790006617940EA0140BD49E439E0
:10318000C1F8E8002046FFF7C9FF0546202D0CDBFB
:10319000B84834300068A5F1200101228A4010436C
:1031A000B449E439C1F8180109E0B2483830006880
:1031B0000121A9400843AF49E439C1F81C0130BDE1
:1031C00030B503460C464FF40000AA4DE43D68605C
:1031D0004FF0786000EAC35040F0C0404FF4F8056B
:1031E00005EA8445284340F40030A24DE43D2864BC
:1031F000002107E09F48E438406800F4000000B177
:1032000003E0491C9C488142F4D300BF9A488142A4
:1032100001D1012030BD4FF40000964DE43D6860BF
:103220002846006C10800020F4E730B503460C46B9
:103230004FF400008F4DE43D68604FF0786000EA85
:10324000C35040F0A0404FF4F80505EA84452843F8
:1032500040F4003095B22843864DE43D28640021B7
:1032600007E08448E438406800F4000000B103E05F
:10327000491C81488142F4D300BF7F48814201D17B
:10328000012030BD4FF400007A4DE43D686000201D
:10329000F7E710B5FDF7F0FD784880694FF47A71D3
:1032A000B0FBF1F0B0FBF1F0C4B26000052190FB7F
:1032B000F1F0401C7E2101EA40006E49E439486487
:1032C00010BD38B5054600246D48C06A40F00100C5
:1032D0006B49C86200206B490860FFF7C7FE684869
:1032E000806B40F40070664988630846806B40F448
:1032F000806088630846806B40F4006088630846FD
:10330000806B40F4805088630846806B40F4005026
:1033100088635D48407820F004005B4948700120D4
:103320005449E43948620020009004E0BDF80000F0
:10333000401C80B20090BDF800006428F6DBFFF767
:10334000A8FF4C2000F0FFF94D2000F0FCF94E20C2
:1033500000F0F9F94FF480604C49086048604C492E
:10336000086348638863C8630864486400BF0A2030
:10337000FEF755F9601C84B2B4F5FA7F01DD012037
:1033800038BD4FF6FF7000906A4602210120FFF71A
:1033900017FFBDF800004FF6FF718842E7D0BDF877
:1033A00000103CA000F025FD6A4603210120FFF734
:1033B00007FFBDF800103CA000F01BFD6A46052188
:1033C0000120FFF7FDFEBDF800103CA000F011FD4C
:1033D0006A4605210120FFF7F3FEBDF800103CA06E
:1033E00000F007FD6A4610210120FFF7E9FEBDF855
:1033F00000103CA000F0FDFC6A4611210120FFF7FF
:10340000DFFEBDF800103CA000F0F3FC6A4612217C
:103410000120FFF7D5FEBDF800103BA000F0E9FC4D
:103420004FF4905200210120FFF7FFFE6A46002171
:103430000120FFF7C5FEBDF8001037A000F0D9FC51
:1034400000BF0A20FEF7EBF8601C84B2B4F5FA7FE7
:103450006ADD012094E767E0B403002098000020B3
:10346000E40300209C000020F4040020A0000020C1
:103470002083B8EDE4000C40FFFF01009003002022
:103480000080044000D000400040064000A00440FE
:10349000009004405048595F504859494452313DCA
:1034A000307825580D0A00005048595F5048594956
:1034B0004452323D307825580D0A00005048595F7B
:1034C000414E4C5041523D307825580D0A000000C5
:1034D0005048595F414E4C5041524E503D30782536
:1034E000580D0A005048595F5048595354533D30C5
:1034F0007825580D0A0000005048595F4D49435245
:103500003D307825580D0A005048595F4D495352B7
:103510003D307825580D0A005048595F424D4352BE
:103520003D307825580D0A006A4601210846FFF70C
:1035300047FEBDF8000000F02000002881D00020E8
:1035400000906A461F210120FFF73AFE00208349C0
:1035500008608349C1F81801804908310860091FD3
:1035600008602868FFF7F7FD7E487D4984310860D0
:1035700000207B49C1F8C400BDF8000000F0100035
:1035800088B177488430006820F00200C1F88400D8
:103590000846D0F8C40040F00400C1F8C40072A08E
:1035A00000F027FC11E06E488430006840F0020013
:1035B0006B49C1F884000846D0F8C40020F004002C
:1035C000C1F8C4006BA000F014FCBDF8000000F0CE
:1035D000040038B162488430006840F400706049EB
:1035E000C1F8840010205E4948624FF4F8505B49EE
:1035F0006C310860624800685949C1F8800161482F
:1036000000685649683108604FF0FF3054494860FF
:103610005D4888600846406A40F0020048624FF00A
:10362000807008610020ABE608B5002000906A4673
:1036300001210846FFF7C4FDBDF8000000F00400BA
:1036400008B1012008BD0020FCE770B504460D4616
:1036500000BF4C480068007800F080000028F8D1D6
:1036600020BA4849096848602846FCF73FFF4549A9
:103670000968488000204349096808616020414981
:1036800009688860AC203F49096808804FF0807065
:103690003349486170BD70B50446002500BF384805
:1036A00000683A49096800EB4110007800F080009A
:1036B000A0BB33490968354A126801EB42114888BA
:1036C000FCF714FF85B22E480068304A126800EB00
:1036D0004210406801BA2A46204601F0E5FC28481D
:1036E00000682A49096800EB4110008840F080001A
:1036F00023490968254A126801EB421108802348D2
:103700000068401C2149086008460068082801D369
:10371000002008604FF0807011490861284670BD94
:103720000F48406840F000600D49486070470C4801
:10373000406840F000700A494860704710B514A016
:1037400000F057FB10BD00F01F020121914042091B
:10375000920002F1E022C2F8001170471C010C40F7
:1037600000000C400441F005E585A8E58F8CE5B725
:10377000A50D0A00E58D8AE58F8CE5B7A50D0A0039
:103780009C000020980000200000786BA000002022
:10379000E4BBA5E5A4AAE7BD91E99499E8AFAF0D14
:1037A0000A0000002DE9F047054600240027002606
:1037B0002E1D44F210416868884230D0F94968688B
:1037C00088422CD0F8496868884228D0F749686850
:1037D000884224D040F21931686888421FD04CF6E4
:1037E0009901686888421AD048F2DA6168688842AC
:1037F00015D0EF496868884211D0EB4943316868B9
:1038000088420CD0EB496868884208D0EA49686869
:10381000884204D0E34984316868884200D103E0DB
:103820004021E6A0FCF7A4FF307800F0070005284F
:103830002CD2DFE800F0030B131B2300E648406B9B
:1038400040F48060E4494863E44C21E0E248406B86
:1038500040F40060E0494863E14C19E0DE48406B09
:1038600040F48050DC494863DE4C11E0DA48406B9C
:1038700040F40050D8494863DB4C09E0D648806AE0
:1038800040F48060D4498862D84C01E0002400BF35
:1038900000BF3088C0F3821005282CD2DFE800F08A
:1038A000030B131B2300CC48806B40F40070CA4903
:1038B0008863CF4F20E0C848806B40F48060C649E1
:1038C0008863CC4F18E0C448806B40F40060C24964
:1038D0008863C94F10E0C048806B40F48050BE49F7
:1038E0008863C64F08E0BC48806B40F40050BA497A
:1038F0008863C34F00E000BF00BF3068C0F384306E
:1039000057F8200020F4E0603168C1F3843147F8B3
:1039100021003068C0F3843057F820003178C1F3BB
:10392000C2014FF4E06202EA012108433168C1F3A9
:10393000843147F821003088C0F3442057F8200034
:1039400020F4E0603188C1F3442147F82100308839
:10395000C0F3442057F820003178C1F3C20102EAD5
:10396000012108433188C1F3442147F82100FDF7C4
:1039700083FAA448D0F818909848844202D0984816
:10398000844202D19F48D0F8149028680001B9FB06
:10399000F0F01FFA80F84FEA49002968B0FBF1F017
:1039A000A0EB481000F0FF0A2078C8F30421084378
:1039B000207084F80180A07A0AF01F010843A072E9
:1039C000E07820F00C00E070A07820F01000A070EB
:1039D000A07820F00200A070607920F020006071D3
:1039E000E07840F00C00E07080208749A1F8840066
:1039F000BDE8F08733B583B00C4603AD019403985E
:103A00000290287800F00700052818D2DFE800F0BF
:103A100003070B0F130071487C49086013E07048DE
:103A20007A4908600FE06F48784908600BE06E48FB
:103A30007649086007E06D487449086003E000209B
:103A40007249086000BF00BF01A8FFF7ABFE05B0D8
:103A500030BD70B504460E461546604884420BD012
:103A60005F48844208D05F48844205D05E48844263
:103A700002D05E48844200D103E0A2214FA0FCF7AF
:103A800077FE2EB1012E03D0022E01D0032E00D1DD
:103A900003E0A32149A0FCF76BFE0DB1012D00D17D
:103AA00003E0A42145A0FCF763FE36B1012E10D03F
:103AB000022E1AD0032E30D123E0012D04D1E0785C
:103AC00040F08000E07003E0E07820F08000E070DB
:103AD00024E0012D04D1E07840F04000E07003E0E4
:103AE000E07820F04000E07018E0012D04D1E0788B
:103AF00040F02000E07003E0E07820F02000E0706B
:103B00000CE0012D04D1E07840F01000E07003E0FB
:103B1000E07820F01000E07000E000BF00BF70BD52
:103B200070B504460E462D4884420BD02C48844282
:103B300008D02C48844205D02B48844202D02B4820
:103B4000844200D103E0C7211CA0FCF711FE2EB176
:103B5000012E03D0022E01D0032E00D103E0C82194
:103B600016A0FCF705FE36B1012E0CD0022E12D0A5
:103B7000032E57D14EE0207900F0800008B10125D6
:103B800000E000254FE0207900F0400008B1012559
:103B900000E0002547E0207900F0200008B1012571
:103BA00037E035E0189E030058220400D88E01004B
:103BB0005B9602001B0B01001C3306002E2E5C538B
:103BC00052435C46574C49425C554152545C7561C6
:103BD00072742E63000000000080044000A00640C4
:103BE00000B0064000C0064000D0064000A00E40D5
:103BF0000090044000A0044000B0044000C0044015
:103C000000D004409003002084340020A400002051
:103C1000002508E0207900F0100008B1012500E03F
:103C2000002500E000BF00BF284670BD00BF02793C
:103C300002F08002002AFAD0C171704770B50446C4
:103C40000E461546DD4884420BD0DD48844208D03C
:103C5000DC48844205D0DC48844202D0DB48844200
:103C600000D105E040F20111AFF2B000FCF780FD99
:103C70002A463146D64801F017FAD54880F88050D8
:103C80000020D34981F8810081F88200E07A20F099
:103C90008000E072E07840F08000E07070BD70B5A8
:103CA00004460D4616462DB1012D03D0022D01D03C
:103CB000032D00D105E040F22111AFF20010FCF716
:103CC00057FDBE4884420BD0BD48844208D0BD4851
:103CD000844205D0BC48844202D0BC48844200D112
:103CE00005E04FF49171AFF22C10FCF741FD0EB1DD
:103CF000012E00D105E040F22311AFF24010FCF795
:103D000037FD15B1012D18D10BE0012E04D1E07A59
:103D100040F08000E07203E0E07A20F08000E07282
:103D20000CE0012E04D1E07A40F02000E07203E0C4
:103D3000E07A20F02000E07200E000BF00BF70BD1C
:103D4000017901F0800119B3C17801F08001F9B166
:103D50009F4991F88210D9B99D4991F8812091F835
:103D60008110491C9A4B83F881101946895CC171F6
:103D7000194691F881101A4692F88020914207DB8B
:103D800001211A4682F88210C17821F08001C170A9
:103D900070470246107900F0200018B1D079087001
:103DA000012070470020FCE700B5034605E01978C4
:103DB00088480068FFF73AFF5B1C18780028F6D1A6
:103DC00000BDF0B504460D46B4FBF5F028B1B4FBD8
:103DD000F5F629463046FFF7F4FFB4FBF5F005FB96
:103DE00010477D480068C15D7A480068FFF71EFFF4
:103DF000F0BD0FB470B505AD00BF08E014B970BCDC
:103E00005DF814FB214673480068FFF70FFF049824
:103E100010F8011B0C4604902529EFD1049810F8E6
:103E2000014B0490632C04D129786A480068FFF79D
:103E3000FDFE642C01D06C2C03D10A212868FFF709
:103E4000C0FF6F2C01D0782C08D16F2C01D1082233
:103E500000E0102211462868FFF7B3FF732C02D14F
:103E60002868FFF7A1FF2D1DC7E770B5FDF77BFBA5
:103E70000446214659A0FFF7BCFF5E4840780A2857
:103E80002AD2DFE800F02905090D1115191D212599
:103E900059A0FFF7AEFF1FE05CA0FFF7AAFF1BE0F1
:103EA00061A0FFF7A6FF17E063A0FFF7A2FF13E0F2
:103EB00066A0FFF79EFF0FE06AA0FFF79AFF0BE0F6
:103EC0006EA0FFF796FF07E072A0FFF792FF03E0F6
:103ED00077A0FFF78EFF00BF00BF46480078282874
:103EE0001AD006DC0A280BD014280DD01E2823D1A6
:103EF0000EE0322814D0352816D03C281CD117E00B
:103F00006FA0FFF776FF1BE071A0FFF772FF17E0CD
:103F100073A0FFF76EFF13E075A0FFF76AFF0FE0D5
:103F200077A0FFF766FF0BE079A0FFF762FF07E0DD
:103F30007BA0FFF75EFF03E07DA0FFF75AFF00BF05
:103F400000BF2C48818884A0FFF753FF2948807860
:103F50000A2190FBF1F201FB12042648807890FBC5
:103F6000F1F5224629467FA0FFF743FF21488068EC
:103F7000810A82A0FFF73DFF1E48C068810A84A025
:103F8000FFF737FF1B480069810A87A0FFF731FF61
:103F90001848416989A0FFF72CFF164881698CA059
:103FA000FFF727FF1348C1698EA0FFF722FF1148D2
:103FB000016A92A0FFF71DFF70BD000000A006403F
:103FC00000B0064000C0064000D0064000A00E40F1
:103FD00084340020A4000020A800002043485F4B48
:103FE00036302046575F56657273696F6E3A2564A6
:103FF0000D0A000090030020536F667477617265AC
:104000002052657365740D0A00000000436F7265ED
:10401000204C6F636B7570204576656E7420526519
:104020007365740D0A0000004A54414720526573BD
:1040300065740D0A00000000506F7765722D6F6E79
:104040002052657365740D0A0000000045787465A0
:10405000726E616C2050696E2052657365740D0A32
:10406000000000005761746368646F6728434F5015
:10407000292052657365740D0A0000004C6F73733C
:10408000206F6620436C6F636B2052657365740DFF
:104090000A0000004C6F772D766F6C7461676520A5
:1040A0004465746563742052657365740D0A00007D
:1040B0004C4C57552052657365740D0A0000000082
:1040C00046616D696C793A4B31300D0A0000000091
:1040D00046616D696C793A4B32300D0A0000000080
:1040E00046616D696C793A4B33300D0A000000006F
:1040F00046616D696C793A4B34300D0A000000005E
:1041000046616D696C793A4B35300D0A000000004C
:1041100046616D696C793A4B35330D0A0000000039
:1041200046616D696C793A4B36300D0A000000002B
:104130000A556E7265636F676E697A6564204B69B4
:104140006E657469732066616D696C79206465764B
:104150006963652E0A00000050696E436E743A254B
:10416000640D0A0053696C69636F6E526576494449
:104170003A25642E25640D0A0000000050466C614B
:1041800073682053697A653A2025644B420D0A0012
:10419000466C65784E564D2053697A653A20256401
:1041A0004B420D0A0000000052414D2053697A65D0
:1041B000203A25644B420D0A00000000436F7265EF
:1041C000436C6F636B3A202564487A0D0A00000047
:1041D000427573436C6F636B3A202564487A0D0A0D
:1041E00000000000466C6578427573436C6F636B2A
:1041F0003A202564487A0D0A00000000466C61737D
:1042000068436C6F636B3A202564487A0D0A00009E
:1042100002460AE010780B78984201D000207047DF
:10422000107800B902E0521C491CF3E700BF0120DE
:10423000F5E706E002780A70027802B902E0401C55
:10424000491CF7E700BF704710B503E003780B7017
:10425000401C491C1300A2F10104A2B2F6D110BD0A
:10426000014600200A4600BF05E00B7803B903E0D1
:10427000431CD8B2491CF8E700BF704710B502468E
:10428000012000E050430B00A1F10104E1B2F9D19B
:1042900010BD024602E020201070521C0800A1F15F
:1042A0000103D9B2F7D170472DE9F04307460E4616
:1042B00000254FF00A083C46002030601FE02078BF
:1042C000392802DC207830280ADA2078462802DCF7
:1042D0002078412804DA2078582809D1012D07D107
:1042E0002078412801DB4FF01008681CC5B205E0BA
:1042F000207800B904E00120BDE8F083641CDEE70B
:1043000000BF3C46B8F1100F0FD1032D01DA022097
:10431000F2E72078302806D16078582803D1A41C11
:10432000A81EC5B204E00320E6E70DB90420E3E7C8
:104330001BE00DB1681EC5B22078392806DC207854
:10434000302803DB2078A0F1300902E02078A0F1CA
:10435000370929464046FFF791FF316809FB0010F5
:104360003060641C207800B900E0E2E700BF002064
:10437000C2E770B586B0044601260025F8A00068A3
:104380000590F8A103C9CDE90301F8A103C9CDE95E
:104390000101F8A00068009005A92046FFF738FF4A
:1043A00070B903A92046FFF733FF48B901A9204699
:1043B000FFF72EFF20B969462046FFF729FF10B10D
:1043C000002006B070BD17E02078292801D02078A1
:1043D00000B912E020782C2802D10DB9701CC6B2A9
:1043E0002078222803D1012D01D1002503E0207877
:1043F000222800D10125641CE6E700BF3046E0E733
:104400002DE9F041B6B006460D464FF000080124F4
:1044100010E005F1F400005D022809D133A800F88E
:10442000048005F59970005D801C404400F0FF0891
:10443000601CC4B2E87A401CA042EADC012440E0DF
:1044400005F1F400005D01281CD105F59471095DAA
:10445000881901A9FFF7EDFE002105F59970005DAF
:1044600001AA1154694601A8FFF71EFF07461FB1B4
:10447000012036B0BDE8F08105F58070009940F864
:1044800024101CE005F59471095D881901A9FFF756
:10449000D0FE002105F59970005D01AA115433A8E2
:1044A000025D05F59E70111801A8FFF7C2FE33A842
:1044B000015D05F59E7001443C3840F82410601CF5
:1044C000C4B2E87A401CA042BADC0020D1E72DE952
:1044D000F04F05460E460024A0460127A146AB46F4
:1044E000012186F8291134E02878292801D028787C
:1044F00000B92FE028782C2809D1B9F1000F06D196
:10450000781CC7B2601CC1B206F59470C1552878FA
:10451000302809DB2878392806DCB9F1000F03D1EF
:10452000012106F1F400C1552878222805D1B9F1FE
:10453000010F02D14FF0000908E02878222805D1A8
:104540004FF00109022106F1F400C1556D1C601CF9
:10455000C4B2C9E700BF01240EE006F1F400005D1B
:10456000022807D106F59470005D401CC1B206F523
:1045700094700155601CC4B2781C8442EDDB0024A9
:104580005D462846FFF76CFE8246012438E006F5BA
:104590009470005D00EB0B0506F5947010F8048034
:1045A00029E006F1F400005D012812D128782C28BA
:1045B00005D02878222802D02878292816D106F597
:1045C0009470005DA8EB0000C1B206F5997001552A
:1045D00013E02878222809D106F59470005DA8EB35
:1045E0000000C1B206F59970015506E06D1C08F196
:1045F000010000F0FF08D045D3DB00BF601CC4B24F
:10460000781C8442C3DB0020BDE8F08F2DE9F74F12
:1046100081B004468A4626460025A946AB460020BE
:1046200000902046FFF71CFE0746E62F03DD012021
:1046300004B0BDE8F08F20786D2817D1641C207875
:10464000612813D1641C20786E280FD1641C207857
:1046500020280BD1042251462046FFF7F5FD641CAB
:1046600020460399FFF7E5FD0220E1E734460025E7
:1046700010E02078282803D109F1010000F0FF099B
:104680002078292803D10BF1010000F0FF0B641CF6
:10469000681CC5B2BD42ECDBB9F1000F04D0BBF120
:1046A000000F01D0D94501D00420C1E734460025D0
:1046B00006E02078282800D104E0641C681CC5B2FC
:1046C000BD42F6DB00BFA946344600250AE020784B
:1046D000202804D14D4502DA681CC0B20090641C49
:1046E000681CC5B2BD42F2DB344600980444A046C3
:1046F0002078612802DB20787A280ADD207841289A
:1047000002DB20785A2804DD20785F2801D00520BC
:104710008EE73446002506E02078282800D104E002
:10472000641C681CC5B2BD42F6DB00BF44462A4685
:1047300051462046FFF788FD62190099501A0399E7
:10474000FFF777FD00210AEB05020098101A0170AF
:104750005046FFF785FD1E280EDD062068E70000A5
:104760002829000028766F696429000028766F697F
:1047700064293B0028293B000398FFF771FDC828F6
:1047800001DD062054E7002052E72DE9F041F6B0A4
:10479000002400250026ED48008900F4004018B9E7
:1047A000012076B0BDE8F081E848067A00210D309E
:1047B000815502AA34A9FFF729FF0546022D30D101
:1047C00000242AE0E149096804EB440201EB82017C
:1047D0003CAA48686EA9FFF719FF02A96EA8FFF767
:1047E00017FDC0B1DAA0FFF704FB02A9DAA0FFF7BA
:1047F00000FBDAA0FFF7FDFAD448006804EB44029E
:1048000000EB82008168D4A0FFF7F3FAD3A0FFF792
:10481000F0FA0020C5E7601CC4B2CC48807AA04200
:10482000D0DC002D5AD000240AE0CD4850F82410E6
:10483000C6480D30FFF7ECFC00B103E0601CC4B2C9
:10484000032CF2DB00BF24B1012C03D0022C40D199
:1048500022E000BFC348FFF7CCFAC348FFF7C9FA0C
:10486000C248FFF7C6FAC248FFF7C3FAC1A0FFF774
:10487000C0FAC9A0FFF7BDFACEA0FFF7BAFAD3A0DD
:10488000FFF7B7FAD7A0FFF7B4FADCA0FFF7B1FA49
:10489000E7A0FFF7AEFA00BFB0A0FFF7AAFAF4A0B6
:1048A000FFF7A7FA00240BE0A848006804EB4402D5
:1048B00000EB82004168FEA0FFF79BFA601CC4B2C7
:1048C000A248807AA042EFDCA4A0FFF792FA002071
:1048D00067E7F9A0FFF78DFA012062E700241CE0EA
:1048E0009A49096804EB440201EB82013CAA48683A
:1048F0006EA9FFF78BFE05462DB12946F3A0FFF701
:1049000078FA02204DE734A96EA8FFF781FC10B1B8
:104910008E48047305E0601CC4B28C48807AA042C3
:10492000DEDC00BF8948807AA04204D1EDA0FFF709
:1049300060FA052035E702A8FFF71BFD07463CA8F3
:10494000FFF717FD87420ED002A8FFF712FD0746BA
:104950003CA8FFF70EFD80463A464146E5A0FFF72A
:1049600048FA06201DE702A8FFF703FD7749C87241
:1049700002A8FFF7ACFD754902A8FFF741FD34A975
:10498000E4A0FFF736FA012422E07048F430005D1D
:10499000012806D1E14850F82410E1A0FFF729FAD8
:1049A0000DE02221DFA0FFF724FADC4850F82410A4
:1049B00069A0FFF71EFA2221DAA0FFF71AFA63486E
:1049C000C07AA04202D0D8A0FFF713FA601CC4B28C
:1049D0005E48C07A401CA042D7DCD4A0FFF709FA99
:1049E0005A48C07A07286FD2DFE800F0041325394F
:1049F000516F900055490968544A127B02EB4202FC
:104A000051F822008047C5B22946C9A0FFF7F1F945
:104A1000A0E14E4A12684D4B1B7B03EB430352F857
:104A200023104A4AD2F804018847C5B22946C0A0DB
:104A3000FFF7DFF98EE1454B1B68444F3F7B07EBE7
:104A4000470753F82720414BD3F80811D3F8040146
:104A50009047C5B22946B6A0FFF7CBF97AE13B4FA4
:104A60003F68DFF8E8C09CF80CC00CEB4C0C57F822
:104A70002C30364FD7F80C21D7F80811D7F804019D
:104A80009847C5B22946AAA0FFF7B3F962E1DFF85B
:104A9000BCC0DCF800C0DFF8B48098F80C8008EBEC
:104AA00048085CF82870DFF8A4C0DCF81031DCF8A6
:104AB0000C21DCF80811DCF80401B847C5B229461E
:104AC0009BA0FFF796F945E140E12048D0F814019A
:104AD000DFF878C00090DCF800C0DFF8708098F84C
:104AE0000C8008EB48085CF82870DFF860C0DCF840
:104AF0001031DCF80C21DCF80811DCF80401B847AF
:104B0000C5B229468AA0FFF774F923E10F48D0F80F
:104B10001811D0F81401DFF834C0CDE90001DCF839
:104B200000C0DFF8288098F80C8008EB48085CF893
:104B30002870DFF818C0DCF81031DCF80C21DCF844
:104B40000811DCF80401B847C5B2F9E00C010020F7
:104B50006D616E2000000000257300000D0A00004A
:104B6000AC0000208C5C0000D05C0000145D0000F4
:104B7000485C0000CCD4B1A6B5EA3A687474703AC7
:104B80002F2F7570636D63752E74616F62616F2E68
:104B9000636F6D0D0A0000004348205348454C4C9C
:104BA000D3D033B8F6CFB5CDB3C3FCC1EE3A0D0ABE
:104BB000000000003F3A20202020BBF1C8A1B0EF48
:104BC000D6FAD0C5CFA20D0A0000000068656C704F
:104BD0003A20BBF1C8A1B0EFD6FAD0C5CFA20D0ADA
:104BE000000000006C6973743A20BFC9D3C3B5C418
:104BF000BAAFCAFDC1D0B1ED0D0A0A00C7EBB0B41F
:104C0000D5D5B3CCD0F2B1E0D0B4B8F1CABDCAE4C6
:104C1000C8EBBAAFCAFDC3FBBCB0B2CECAFDB2A2EC
:104C2000D2D4BBD8B3B5BCFCBDE1CAF82E0D0A0086
:104C30002D2D2D2D2D2D2D2D2D2D2D2D2D2D2D2DA4
:104C40002D2D2D2D2D2D2D2D2D2D59414E444C44E6
:104C5000202D2D2D2D2D2D2D2D2D2D2D2D2D2D2D91
:104C60002D2D2D2D2D2D2D2D2D2D200D0A0000004B
:104C70002D2D2D2D2D2D2D2D2D2D2D2D2D2D2D2D64
:104C80002D2D2D2D2D2D2D2D2DBAAFCAFDC7E5B5FE
:104C9000A52D2D2D2D2D2D2D2D2D2D2D2D2D2D2DCC
:104CA0002D2D2D2D2D2D2D2D2D2D2D2D200D0A00B1
:104CB00025730D0A00000000CEDEB7A8CAB6B1F019
:104CC000B5C4D6B8C1EE0D0A00000000B1BEB5D81B
:104CD000BAAFCAFDBDE2CEF6B4EDCEF32025640D29
:104CE0000A000000CEDEB7A8C6A5C5E4BAAFCAFD6B
:104CF0000D0A0000B2CECAFDCAE4C8EBB2BBD5FDB6
:104D0000C8B720B1BEB5D8256420CAE4C8EB256475
:104D10000D0A00000D0A2573280000000C02002077
:104D200025640000256300002C000000290D0A0006
:104D300046756E5265743A2025640D0A0000000025
:104D40002946AFF21400FFF754F803E023A0FFF761
:104D500050F800BF00BF002023E510B504462248EC
:104D6000008900F4004018BB1F48008900F480400F
:104D7000B0B10A2C03D000201B4908812DE01A484D
:104D8000008940F4004018490881FFF7FEFCE62145
:104D900015480D30FFF77DFA0020134908811CE00B
:104DA0000D2C06D11048008940F480400E4908813E
:104DB00013E00D480089C0F30D010B480D30445439
:104DC0000D380089401C0849088108460089C0F355
:104DD0000D00E52801DD0020088110BDCAE4C8EB04
:104DE000B4EDCEF30D0A00000C0100202DE9F041D6
:104DF00004460F4615461E46DDF818805CA0FEF7F7
:104E0000F8FF21465FA0FEF7F4FF394660A0FEF7E9
:104E1000F0FF294661A0FEF7ECFF314662A0FEF7E5
:104E2000E8FF414663A0FEF7E4FF6420BDE8F0819F
:104E3000012806D0022807D0032808D004280CD166
:104E400008E05F4A116009E05E4A116006E05E4AD0
:104E5000916603E05D4A516400E000BF00BF704707
:104E60002DE9F04105460C46284600F0F5FC58496E
:104E700008600846006800F00BFB064632460B4609
:104E800054A0FEF7B6FF204600F0E6FC5349086048
:104E90004B48006808B9012000E00020484908603C
:104EA000BDE8F0812DE9F04782460C469146504618
:104EB00000F0DDF907464A4A4A4B00F0EBF9054697
:104EC00000F0A4F948490860204600F0D0F90746F0
:104ED000434A444B00F0DEF9054600F097F9434998
:104EE0000860484600F0C3F907463D4A3D4B00F0D4
:104EF000D1F9054600F08AF93D490860314800685B
:104F000008B9012000E000202E490860BDE8F087C4
:104F1000384B1880384B1960384B1A60704710B501
:104F200004467B2C10D100BFBFF34F8F344800687C
:104F300000F4E06033490843001D31490860BFF3C5
:104F40004F8F00BF00BFFEE72FA0FEF752FF10BD3E
:104F50001C48006808B9012000E0002019490860D9
:104F6000704710B54FF4E1312B48FEF743FD10BDFB
:104F7000BDF8C8EB5465737446756EBAAFCAFD0DC3
:104F80000A000000B2CECAFD313A2025730D0A0096
:104F9000B2CECAFD323A2025640D0A00B2CECAFD57
:104FA000333A2025730D0A00B2CECAFD343A2025CB
:104FB000640D0A00B2CECAFD353A2025730D0A00F1
:104FC0000010FE433C18FE430020FE430000FE4359
:104FD0008400002025640D0A0000000088000020E5
:104FE0008DEDB5A0F7C6B03E34000020380000209B
:104FF0004000002022000020240000202800002083
:105000000CED00E00000FA0570737764B2BBD5FDCB
:10501000C8B7210D0A0000001C3306000EB50020A1
:10502000ADF800008DF802008DF8030008208DF81F
:1050300004001C4802906846FDF722F90F20ADF8E5
:10504000000000208DF802008DF8030008208DF884
:1050500004001448403002906846FDF711F91A2008
:10506000ADF8000000208DF802008DF80300082044
:105070008DF804000B48803002906846FDF700F977
:105080001120ADF8000000208DF802008DF803001B
:1050900008208DF804000348803802906846FDF728
:1050A000EFF80EBD80F00F40032A40F2308010F080
:1050B000030C00F0158011F8013BBCF1020F6244B3
:1050C00098BF11F801CB00F8013B38BF11F8013B44
:1050D000A2F1040298BF00F801CB38BF00F8013BF1
:1050E00011F0030300F02880083AC0F0088051F85E
:1050F000043B083A51F804CBA0E80810F5E7121D6C
:105100005CBF51F8043B40F8043BAFF30080D2078A
:1051100024BF11F8013B11F801CB48BF11F8012B56
:1051200024BF00F8013B00F801CB48BF00F8012B79
:10513000704770477047704710B5203AC0F00B8039
:10514000B1E81850203AA0E81850B1E81850A0E88B
:105150001850BFF4F5AF5FEA027C24BFB1E81850E5
:10516000A0E8185044BF18C918C0BDE810405FEA55
:10517000827C24BF51F8043B40F8043B08BF7047D1
:10518000D20728BF31F8023B48BF11F8012B28BFD6
:1051900020F8023B48BF00F8012B7047754600F02D
:1051A00029F8AE4605006946534620F007008546BB
:1051B00018B020B5FBF77AFABDE820404FF00006A2
:1051C0004FF000074FF000084FF0000B21F00701EF
:1051D000AC46ACE8C009ACE8C009ACE8C009ACE832
:1051E000C0098D4670470446AFF300802046FBF7A8
:1051F00076F90000004870470C350020014918205E
:10520000ABBEFEE7260002007047000021F000421E
:10521000A2F16052B2F5801F01F0004328BFD2F125
:105220007F6C0BD95FEA001C43EAC20242EB50706C
:1052300018BF704728BF20F001007047B2F5801FEB
:10524000BCBF184670474FEA410C1CF5001F02D244
:10525000084600F010BC70B500F0C6F800000089E8
:10526000FFF7F6BF4FF00040A0F580007047B0FA9E
:1052700080F310FA03F10AD0C3F11D0303F5806334
:105280004FEA41504FEA035202EBD12170474FF0F1
:1052900000007047DFF848C170B51CEA111E1EBF40
:1052A0001CEA13159EEA0C0F95EA0C0F00F06F80B4
:1052B00081EA030423EA4C134EEAD47E21EA4C111E
:1052C00041F4801143F48013AE44A1FB024CA0FBD7
:1052D0000365AEF17F7E361955EB0C05A1FB034C3F
:1052E0004CF10003A0FB021C16EB0C06654153F1C8
:1052F0000003094218BF46F0010613F4007F0BD1EA
:105300004FEA03314FEA0530340341EA155140EAD0
:1053100016506FF003020AE04FEAC3214FEAC5209E
:10532000F40241EA555140EA56506FF0020202EB96
:105330002E4201EB025585EACE710AD05FEA440C99
:1053400018BF24F0004450F1000041F1000120EAB0
:10535000D47040F2FE7C624500D270BDA84214BFFA
:105360004FF080444FF04044002E08BF0024BEF1AF
:10537000806FA8BFA1F1C041BDE8704080F282807B
:105380004FF0000001F1C04101F0004170479EEA7A
:105390000C0F0CEA131518BF95EA0C0F06D04FF04E
:1053A000000081EA030E0EF0004170BD00F01CF811
:1053B0008900013E00F007B800F009B84FEA430C3D
:1053C0005FEA5C5C08D081EA030100F05BB84FEA59
:1053D000410C5FEA5C5CF6D14FF000000149704778
:1053E0000000FF070000F87F0EF1020E2EF0030E02
:1053F0005EF8046B364205D4012A43EB030515F52C
:10540000001F12D8012841EB010C1CF5001F0CD81D
:105410000ED14FEAD17C15F5001F0CEB4C0C0CF1B2
:10542000020C08BF4CEBD37C04E04FF0080C01E009
:105430004FEAD37C0CEB4C0526FA05F606F007067E
:10544000B6F1040C06D20EEB860CBDE870404CF0B1
:10545000010C6047DFE80CF0090B02024FF000413D
:105460004FF00000A1F5002170BD1946104601283B
:1054700051EB010418BFD4F5001484BF002001F0E3
:10548000004170BD0808A0F500114FEA31017047D6
:1054900043004FEAD30C4FEA3C0C43401FBF400788
:1054A0000CF1605113F0FE4F70471CF0006F03D1F8
:1054B00000200CF0004170470CF0004343EA5070AC
:1054C00010B540EACC0000F090FA00BF0000009256
:1054D0004FEA0001FFF7D6BF4FF000414FF0000048
:1054E000A1F500217047000090EA010F48BF81F04C
:1054F000004100F10883421A3CBF801A89184FEA24
:10550000D0524FF07F4C1CEA410FA2EBD15318BF91
:105510009CEA026F00F03B804FF0004C4CEA002008
:105520004CEA012121FA03FC10EB0C0C1ED202F113
:10553000FF325FEA1C2040EBC25038BF70471CF0BE
:105540007F0F4FEA400C18BFBCF17F4F38BF704748
:10555000C3F12003994008BF20F00100BCF17F4F48
:1055600038BF7047A0F1C04000F085BA4FEA3C0058
:10557000000A40EBC25028BF1CF0FF0F4FEA400C5E
:10558000E6D018BFBCF17F4F38BF7047EAE79CEA0E
:10559000026F05D010EA5C0F08BF00F000407047B2
:1055A00010B500F022FA00BF64FBBE3E401058BFA9
:1055B000C0F14040491058BFC1F140418142EFF372
:1055C000008070474FF47F0C1CEAD0121EBF1CEA0B
:1055D000D11392EA0C0F93EA0C0F00F0858090EA49
:1055E000010F48BF42F4807240F4000C41F4000007
:1055F0002CF07F4120F07F4000B58142A2EB0302F6
:105600000FF2081CACEB504EC0F100009EF800E019
:105610004FEA4E0E00FB0EFC38BF49004FEA2C1C2F
:1056200002F5FA020CFB0EF34FEACE1E4FEA112CE4
:105630004FEAC1210EEB635E42EB22420EFB0CFCF3
:105640004FEA1C5300FB03114FEA112C4FEA0131C2
:105650000EFB0CFC4FEADC4C00FB0C11C14228BFD6
:1056600009184CEB03335DF804EB10EB410143EBFD
:10567000C250B2F57C0F38BF704729D512F0F00F39
:105680001CBF00F1C04000F00040704700818283E1
:105690008485868788898B8C8D8E8F919293959641
:1056A00097999A9C9D9FA0A2A3A5A7A8AAACAEB0CB
:1056B000B2B3B5B7B9BCBEC0C2C5C7C9CCCED1D4D0
:1056C000D7D9DCDFE2E6E9ECF0F3F7FAFE00000000
:1056D0004FEA400C0CF1807CBCF17E4F28BF704734
:1056E000B0F1C04000F0C7B990EA010F0CEAD11345
:1056F00048BF42F48072624538BF634507D213F455
:105700007F0F16D080EA010000F00040704710B50E
:1057100000F06BF9097EFC3E00F005B880EA01005C
:1057200000F00040704780EA010000F0004000F007
:10573000A2B912F47F0F04BF0248704780EA01004B
:1057400000F099B90000C07F50EA010C00F113800D
:105750001CF5000F58BFBCF5000F01D488427047FC
:1057600007D710F5000F58BF11F5000F15D4884268
:105770007047894270471CF5000F04D5BCF5000F37
:10578000F7D5814270474FF0807C1CEB400F38BF4B
:105790001CEB410F01D28142704710B500F025F992
:1057A000922449004FF000504FF08051FFF7FEBEA9
:1057B00041000B0ED3F19E0208D950F400034FEACA
:1057C000032323FA02F048BF4042704710B500F0AF
:1057D0000CF900BF49922480002070476FF000420E
:1057E00082EA200070470000C10DD1F19E0206DB65
:1057F0004FEA002343F0004323FA02F070470042CF
:1058000007D54FEA4001B1F1FE4F02D24FF0000040
:10581000704710B500F0E9F84992248000207047E5
:105820006FEA20007047000010F0004148BF40427E
:10583000B0FA80F310FA03F2C3F19D030BD051EAE2
:10584000C35101EB1220530638BF704700F101002D
:1058500008BF20F001007047B0FA80F310FA03F29D
:10586000C3F19D030AD0D90501EB1220530638BFBE
:10587000704700F1010008BF20F0010070470000F0
:1058800050EA010C00F113801CF5000F58BFBCF565
:10589000000F01D48842704707D710F5000F58BF9A
:1058A00011F5000F15D488427047894270471CF5E6
:1058B000000F04D5BCF5000FF7D5814270474FF0BB
:1058C000807C1CEB400F38BF1CEB410F01D28142A2
:1058D000704710B500F089F8922449004FF000504D
:1058E0004FF08051FFF762BE4FF47F0C1CEAD012DC
:1058F0001EBF1CEAD11392EA0C0F93EA0C0F00F0C2
:10590000478090EA010F48BF42F480724FF0004C8C
:105910004CEA00204CEA012102EB0302A0FB011338
:10592000A2F50002002918BF43F001035B0028BF65
:105930004FEA330342EB22425FEA132C4CEBC25096
:105940002EBFBCEB436FB2F57C0F70474FEA036C80
:10595000BCF1004F08BF20F00100B2F57C0F38BF4A
:1059600070470BD582F0FF0212F5803FC8BF704729
:1059700000F1C040D8BF00F00040704700F5000CB7
:105980005FEA4C0C48BF7047B0F1C04000F073B8FC
:1059900090EA010F0CEAD11348BF42F480726245CD
:1059A00038BF634504D280EA010000F00040704730
:1059B00010B500F01AF800BF8900013E00F007B8EA
:1059C00000F009B85FEA410C5FEA1C6C08D080EA7D
:1059D000010000F050B85FEA400C5FEA1C6CF6D1A1
:1059E0004FF00040A0F5800070470EF1020E2EF03F
:1059F000030E5EF8044B244204D44FEA4102B2F194
:105A00007F4F11D84FEA4003B3F17F4F0CD80ED12E
:105A10004FEAD07CB2F17F4F0CEB4C0C0CF1020C36
:105A200008BF4CEBD17C04E04FF0080C01E04FEADA
:105A3000D17C0CEB4C0324FA03F404F00704B4F11A
:105A4000040C06D20EEB840CBDE810404CF0010CA7
:105A50006047DFE80CF0070802024FF00040A0F5B5
:105A6000800010BD0846420018BFD2F1807288BF86
:105A700000F0004010BDFF2141EAD050C005704742
:105A800051EA000C00F113801CF5000F58BFBCF563
:105A9000000F01D48142704707D711F5000F58BF9E
:105AA00010F5000F15D481427047894270471CF5EC
:105AB000000F04D5BCF5000FF7D5884270474FF0B2
:105AC000807C1CEB410F38BF1CEB400F01D2884299
:105AD000704780EA010081EA000180EA0100FFF7D7
:105AE000F8BE80F0004090EA010F7FF504AD81F030
:105AF000004100F008B8000090EA010F48BF81F0B3
:105B000000413FF5F8AC421A04D882F00042A0EB05
:105B1000020011444FEAD0524FF07F4C1CEA410F73
:105B2000A2EBD15318BF9CEA026F4AD04FF0004C51
:105B30004CEA00204CEA012121FA03FCB0EB0C0CEA
:105B40000FD412F0FE0F36D05FEA4C001DD50012C4
:105B500040EBC25038BF70471CF03F0F18BF704772
:105B60000BE0A2F101025FEA1C2040EBC25038BFFB
:105B700070471CF07F0F18BF7047C3F12003994096
:105B800014BF401E20F00100704780084FEA122326
:105B900008BF7047B0FA80FCA2EB0C02CCF1280CD5
:105BA00060FA0CF093EA122F04BF00EBC25070476A
:105BB0004FEAC3707047130A5FEADC1008BF7047F2
:105BC000F6E79CEA026F04D010EA5C0F08BF0020E1
:105BD000704710B5FFF709FF40DFF63E81F0004047
:105BE000704700000081100000030C0010821000BC
:105BF00010040C002083100020050C0030841000DD
:105C000040C4100050C5100050000C0060C61000C9
:105C100060010C0070C7100070020C00010C0C0039
:105C200001400C00110D0C0011410C0002520C003F
:105C300012530C0030313233343536373839414263
:105C40004344454600000000BAAFCAFDB5C4CAE4EB
:105C5000C8EBB2CECAFD2EB5A5B8F6BAAFCAFDD70D
:105C6000EEB6E0D6A7B3D636B8F6CAE4C8EBB2CEE5
:105C7000CAFD2EBFC9D2D4CAC7CAFDD7D6BBF2D57A
:105C8000DFD7D6B7FBB4AE20200D0A002D2D2D2D69
:105C90002D2D2D2D2D2D2D2D2D2D2D2D2D2D2D2D34
:105CA0002D2D2D2D2D2D4348205348454C4C20564D
:105CB000312E302D2D2D2D2D2D2D2D2D2D2D2D2D0C
:105CC0002D2D2D2D2D2D2D2D2D2D2D200D0A0000AE
:105CD0002020202043485348454C4CCAC7D3C959BB
:105CE000414E444C44BFAAB7A2B5C4D2BBB8F6C11A
:105CF000E9C7C9B5C4B4AEBFDAB5F7CAD4BBA5BD50
:105D0000BBD7E9BCFE2CCDA8B9FDCBFC2CC4E3204D
:105D10000D0A0000BFC9D2D4CDA8B9FDB4AEBFDA18
